{
  "contractName": "ForensicEvidenceContract",
  "abi": [
    {
      "inputs": [],
      "stateMutability": "nonpayable",
      "type": "constructor"
    },
    {
      "inputs": [],
      "name": "evidences",
      "outputs": [
        {
          "internalType": "string",
          "name": "",
          "type": "string"
        }
      ],
      "stateMutability": "view",
      "type": "function",
      "constant": true
    },
    {
      "inputs": [
        {
          "internalType": "string",
          "name": "e",
          "type": "string"
        }
      ],
      "name": "setEvidenceDetails",
      "outputs": [],
      "stateMutability": "nonpayable",
      "type": "function"
    },
    {
      "inputs": [],
      "name": "getData",
      "outputs": [
        {
          "internalType": "string",
          "name": "",
          "type": "string"
        }
      ],
      "stateMutability": "view",
      "type": "function",
      "constant": true
    }
  ],
  "bytecode": "0x608060405234801561001057600080fd5b506040518060400160405280600581526020017f656d7074790000000000000000000000000000000000000000000000000000008152506000908051906020019061005c929190610062565b50610166565b82805461006e90610134565b90600052602060002090601f01602090048101928261009057600085556100d7565b82601f106100a957805160ff19168380011785556100d7565b828001600101855582156100d7579182015b828111156100d65782518255916020019190600101906100bb565b5b5090506100e491906100e8565b5090565b5b808211156101015760008160009055506001016100e9565b5090565b7f4e487b7100000000000000000000000000000000000000000000000000000000600052602260045260246000fd5b6000600282049050600182168061014c57607f821691505b602082108114156101605761015f610105565b5b50919050565b61055f806101756000396000f3fe608060405234801561001057600080fd5b50600436106100415760003560e01c80633bc5de30146100465780639f3acc7214610064578063b1e9347d14610082575b600080fd5b61004e61009e565b60405161005b9190610314565b60405180910390f35b61006c610130565b6040516100799190610314565b60405180910390f35b61009c6004803603810190610097919061047f565b6101be565b005b6060600080546100ad906104f7565b80601f01602080910402602001604051908101604052809291908181526020018280546100d9906104f7565b80156101265780601f106100fb57610100808354040283529160200191610126565b820191906000526020600020905b81548152906001019060200180831161010957829003601f168201915b5050505050905090565b6000805461013d906104f7565b80601f0160208091040260200160405190810160405280929190818152602001828054610169906104f7565b80156101b65780601f1061018b576101008083540402835291602001916101b6565b820191906000526020600020905b81548152906001019060200180831161019957829003601f168201915b505050505081565b80600090805190602001906101d49291906101d8565b5050565b8280546101e4906104f7565b90600052602060002090601f016020900481019282610206576000855561024d565b82601f1061021f57805160ff191683800117855561024d565b8280016001018555821561024d579182015b8281111561024c578251825591602001919060010190610231565b5b50905061025a919061025e565b5090565b5b8082111561027757600081600090555060010161025f565b5090565b600081519050919050565b600082825260208201905092915050565b60005b838110156102b557808201518184015260208101905061029a565b838111156102c4576000848401525b50505050565b6000601f19601f8301169050919050565b60006102e68261027b565b6102f08185610286565b9350610300818560208601610297565b610309816102ca565b840191505092915050565b6000602082019050818103600083015261032e81846102db565b905092915050565b6000604051905090565b600080fd5b600080fd5b600080fd5b600080fd5b7f4e487b7100000000000000000000000000000000000000000000000000000000600052604160045260246000fd5b61038c826102ca565b810181811067ffffffffffffffff821117156103ab576103aa610354565b5b80604052505050565b60006103be610336565b90506103ca8282610383565b919050565b600067ffffffffffffffff8211156103ea576103e9610354565b5b6103f3826102ca565b9050602081019050919050565b82818337600083830152505050565b600061042261041d846103cf565b6103b4565b90508281526020810184848401111561043e5761043d61034f565b5b610449848285610400565b509392505050565b600082601f8301126104665761046561034a565b5b813561047684826020860161040f565b91505092915050565b60006020828403121561049557610494610340565b5b600082013567ffffffffffffffff8111156104b3576104b2610345565b5b6104bf84828501610451565b91505092915050565b7f4e487b7100000000000000000000000000000000000000000000000000000000600052602260045260246000fd5b6000600282049050600182168061050f57607f821691505b60208210811415610523576105226104c8565b5b5091905056fea2646970667358221220efe37807751e2351da41132f7f4e2845db13b5b685751ed4ec71244b5874161964736f6c63430008090033",
  "immutableReferences": {},
  "source": "pragma solidity >= 0.8.9 <= 0.8.9;\r\n\r\ncontract ForensicEvidenceContract {\r\n    string public evidences;\r\n\r\n    function setEvidenceDetails(string memory e) public {\r\n        evidences = e;\t\r\n    }\r\n\r\n    function getData() public view returns (string memory) {\r\n        return evidences;\r\n    }\r\n\r\n    constructor() public {\r\n        evidences = \"empty\";\r\n    }\r\n}",
  "sourcePath": "C:\\Users\\Tru Projects\\Desktop\\Desktop 2\\Desktop\\Blockchain Projects\\ForensicEvidence\\ForensicEvidence\\hello-eth\\node_modules\\.bin\\contracts\\ForensicEvidenceContract.sol",
  "compiler": {
    "name": "solc",
    "version": "0.8.9+commit.e5eed63a.Emscripten.clang"
  },
  "schemaVersion": "3.4.3",
  "updatedAt": "2022-03-15T06:14:36.783Z",
  "networkType": "ethereum",
  "devdoc": {
    "kind": "dev",
    "methods": {},
    "version": 1
  },
  "userdoc": {
    "kind": "user",
    "methods": {},
    "version": 1
  }
}